:020000020000FC
:10000000209A219A229A2398249825980BEE0093FF
:10001000000108E40093010103ED009302010AEDE1
:100020000093030108E7009304010AEB0093050124
:100030000BE30093060108EC009307010BEF00931C
:10004000080108EF0093090108E000930A010FEE90
:1000500000930B010CE400930C0107ED00930D01DC
:100060000EED00930E010CE700930F010EEB0093D1
:1000700010010FE3009311010CEC009312010FEF3C
:10008000009313010CEF00931401F0E0E0E02D9ACF
:100090006DD081D01D9BFECF1D9B05C01C9B08C051
:1000A0001B9B09C0F9CFAFD0891708F0F5CFC8C0A6
:1000B0001C9B04C0F1CF1B9B01C0EECF95D08917CC
:1000C00008F0EACF1C9903C01B990DC0FBCFF93093
:1000D00021F015D04BD05FD0DFCFE930E9F20FD05F
:1000E00045D059D0D9CFF03021F010D03FD053D0E7
:1000F000D3CFE03089F20AD039D04DD0CDCFE395BF
:10010000EA3009F00895E0E0F3950895E03011F049
:10011000EA950895E9E0FA9508950F932F932FB784
:100120002F9328E0001F10F0289801C0289A299AE0
:1001300029982A95B9F72A9A2A982F912FBF2F919B
:100140000F91089500910B01E8DF089500910C01D3
:10015000E4DF089500910D01E0DF089500910E01A4
:10016000DCDF089500910F01D8DF0895E03051F3EE
:10017000E13061F3E23071F3E33081F3E43091F385
:10018000E530F1F0E63001F1E73011F1E83021F12E
:10019000E93031F10895F030A9F2F130B9F2F230DE
:1001A000C9F2F330D9F2F430E9F2F53049F0F63023
:1001B00059F0F73069F0F83079F0F93089F00895A6
:1001C00000911001AADF089500911101A6DF0895A2
:1001D00000911201A2DF0895009113019EDF08959E
:1001E000009114019ADF089590E080E074E17A951F
:1001F0001B9B93951C9B93951B9983951C998395A9
:1002000018D0A9F7089590E080E07FE07A951D9BD3
:1002100093951D9983950DD0C9F70895A7E0BFEF79
:10022000CFEFCA95F1F7BA95E1F7AA95D1F700009B
:100230000895A3E0B3E1BA95F1F7AA95E1F708951F
:1002400060E050E021D035D01D9BFACF1D9B01C04E
:10025000FDCFD9DF891708F0F9CF88DF9CDF1ACFEF
:10026000009100015ADF08950091010156DF0895C1
:100270000091020152DF0895009103014EDF0895BD
:10028000009104014ADF0895503051F3513061F379
:10029000523071F3533081F3543091F35530F1F013
:1002A000563001F1573011F1583021F1593031F108
:1002B00008956030A9F26130B9F26230C9F263305A
:1002C000D9F26430E9F2653049F0663059F06730B0
:1002D00069F0683079F0693089F00895009105017E
:1002E0001CDF08950091060118DF089500910701B1
:1002F00014DF08950091080110DF089500910901AD
:040300000CDF089571
:00000001FF
