:020000020000FC
:10000000209A219A229A2398249825980BEE0093FF
:10001000000108E40093010103ED009302010AEDE1
:100020000093030108E7009304010AEB0093050124
:100030000BE30093060108EC009307010BEF00931C
:10004000080108EF0093090108E000930A010FEE90
:1000500000930B010CE400930C0107ED00930D01DC
:100060000EED00930E010CE700930F010EEB0093D1
:1000700010010FE3009311010CEC009312010FEF3C
:10008000009313010CEF00931401F0E0E0E065D061
:1000900079D01C9B03C01B9B04C0FBCF1C9B04C0DE
:1000A000F8CF1B9B01C0F5CF96D0891708F0F1CF90
:1000B0001C9903C01B990EC0FBCFF93021F016D05C
:1000C0004CD060D0E6CFE93021F010D046D05AD0E5
:1000D000E0CFDFCFF03021F010D03FD053D0D9CFD8
:1000E000E030B9F30AD039D04DD0D3CFE395EA3020
:1000F00009F00895E0E0F3950895E03011F0EA95F5
:100100000895E9E0FA9508950F932F932FB72F9351
:1001100028E0001F10F0289801C0289A299A2998F1
:100120002A95B9F72A9A2A982F912FBF2F910F91CC
:10013000089500910B01E8DF089500910C01E4DFC0
:10014000089500910D01E0DF089500910E01DCDFBC
:10015000089500910F01D8DF0895E03051F3E130A8
:1001600061F3E23071F3E33081F3E43091F3E53091
:10017000F1F0E63001F1E73011F1E83021F1E9303A
:1001800031F10895F030A9F2F130B9F2F230C9F24C
:10019000F330D9F2F430E9F2F53049F0F63059F0A5
:1001A000F73069F0F83079F0F93089F0089500916E
:1001B0001001AADF089500911101A6DF08950091B2
:1001C0001201A2DF0895009113019EDF08950091AE
:1001D00014019ADF089590E080E074E17A951B9B0A
:1001E00093951C9B93951B9983951C9983950DD092
:1001F000A9F70895A7E0BFEFCFEFCA95F1F7BA9539
:10020000E1F7AA95D1F700000895A3E0B3E1BA950C
:08021000F1F7AA95E1F708954A
:00000001FF
