:020000020000FC
:10000000209A219A229A2398249825980BEE0093FF
:10001000000108E40093010103ED009302010AEDE1
:100020000093030108E7009304010AEB0093050124
:100030000BE30093060108EC009307010BEF00931C
:10004000080108EF0093090108E000930A010FEE90
:1000500000930B010CE400930C0107ED00930D01DC
:100060000EED00930E010CE700930F010EEB0093D1
:1000700010010FE3009311010CEC009312010FEF3C
:10008000009313010CEF00931401F0E0E0E069D05D
:100090007DD01C9B03C01B9B04C0FBCF1C9B04C0DA
:1000A000F8CF1B9B01C0F5CF9AD0891708F0F1CF8C
:1000B0001C9903C01B9905C0FBCF31D052D066D02C
:1000C000E8CF34D04ED062D0E4CFE3CFE2CF1B9B59
:1000D00049F0DFCF24D045D059D090D01B99D9CF4B
:1000E0008DD0FCCF23D03DD051D088D01C99D1CF1A
:1000F00085D0FCCF0F932F932FB72F9328E0001FAD
:1001000010F0289801C0289A299A29982A95B9F7B9
:100110002A9A2A982F912FBF2F910F910895E39536
:10012000EA3009F00895E0E0F3950895E03011F029
:10013000EA950895E9E0FA95089500910B01DADF58
:10014000089500910C01D6DF089500910D01D2DFD2
:10015000089500910E01CEDF089500910F01CADFCE
:100160000895E03051F3E13061F3E23071F3E330B0
:1001700081F3E43091F3E530F1F0E63001F1E7305E
:1001800011F1E83021F1E93031F10895F030A9F2B0
:10019000F130B9F2F230C9F2F330D9F2F430E9F2C9
:1001A000F53049F0F63059F0F73069F0F83079F071
:1001B000F93089F00895009110019CDF08950091B5
:1001C000110198DF08950091120194DF08950091C4
:1001D000130190DF0895009114018CDF089590E0E1
:1001E00080E07FE07A951B9B93951C9B93951B99D0
:1001F00083951C9983950DD0A9F70895A7E0BFEFCB
:10020000CFEFCA95F1F7BA95E1F7AA95D1F70000BB
:100210000895A3E0B3E1BA95F1F7AA95E1F708953F
:00000001FF
