:020000020000FC
:10000000209A219A229A2398249825980BEE0093FF
:10001000000108E40093010103ED009302010AEDE1
:100020000093030108E7009304010AEB0093050124
:100030000BE30093060108EC009307010BEF00931C
:10004000080108EF0093090108E000930A010FEE90
:1000500000930B010CE400930C0107ED00930D01DC
:100060000EED00930E010CE700930F010EEB0093D1
:1000700010010FE3009311010CEC009312010FEF3C
:10008000009313010CEF00931401F0E0E0E054D072
:1000900068D01C9904C01C9B05C0FBCFFACF1B9BEA
:1000A00021F0F7CF1B9B49F0F4CF24D045D059D095
:1000B0008DD01B99EECF8AD0FCCF23D03DD051D02C
:1000C00085D01C99E6CF82D0FCCF0F932F932FB70A
:1000D0002F9328E0001F10F0289801C0289A299A31
:1000E00029982A95B9F72A9A2A982F912FBF2F91EC
:1000F0000F910895E395EA3009F00895E0E0F39553
:100100000895E03011F0EA950895E9E0FA95089530
:1001100000910B01DADF089500910C01D6DF0895FC
:1001200000910D01D2DF089500910E01CEDF0895F8
:1001300000910F01CADF0895E03051F3E13061F31F
:10014000E23071F3E33081F3E43091F3E530F1F024
:10015000E63001F1E73011F1E83021F1E93031F119
:100160000895F030A9F2F130B9F2F230C9F2F3306B
:10017000D9F2F430E9F2F53049F0F63059F0F730C1
:1001800069F0F83079F0F93089F0089500911001A4
:100190009CDF08950091110198DF089500911201EC
:1001A00094DF08950091130190DF089500911401E8
:1001B0008CDF089530E040E07AE080E07A951B9B88
:1001C00043951B993395D1F734170895A7E0BFEFF6
:1001D000CFEFCA95F1F7BA95E1F7AA95D1F70000EC
:0201E000089580
:00000001FF
