:020000020000FC
:10000000209A219A229A2398249825985598A3E01B
:10001000A5BD0BEE0093000108E40093010103ED80
:10002000009302010AED0093030108E70093040125
:100030000AEB009305010BE30093060108EC009323
:1000400007010BEF0093080108EF0093090108E096
:1000500000930A010FEE00930B010CE400930C01D6
:1000600007ED00930D010EED00930E010CE70093D8
:100070000F010EEB009310010FE3009311010CEC44
:10008000009312010FEF009313010CEF0093140182
:1000900010E0C0E02D9A70D084D06ED082D01D9B2D
:1000A000FCCF1D9B05C01C9B09C01B9B0AC0F9CF40
:1000B000B0D0891708F0F5CFB7D0BDC01C9B04C0E5
:1000C000F0CF1B9B01C0EDCF95D0891708F0E9CF89
:1000D0001C9903C01B990DC0FBCF193021F015D01E
:1000E0004BD05FD0DECFC930E1F20FD045D059D030
:1000F000D8CF103021F010D03FD053D0D2CFC03065
:1001000081F20AD039D04DD0CCCFC395CA3009F096
:100110000895C0E013950895C03011F0CA95089570
:10012000C9E01A9508950F932F932FB72F9328E0C6
:10013000001F10F0289801C0289A299A29982A951A
:10014000B9F72A9A2A982F912FBF2F910F910895CE
:1001500000910B01E8DF089500910C01E4DF0895A0
:1001600000910D01E0DF089500910E01DCDF08959C
:1001700000910F01D8DF0895C03051F3C13061F311
:10018000C23071F3C33081F3C43091F3C530F1F064
:10019000C63001F1C73011F1C83021F1C93031F159
:1001A00008951030A9F21130B9F21230C9F21330AB
:1001B000D9F21430E9F2153049F0163059F0173001
:1001C00069F0183079F0193089F008950091100124
:1001D000AADF089500911101A6DF08950091120190
:1001E000A2DF0895009113019EDF0895009114018C
:1001F0009ADF089590E080E074E17A951B9B9395D7
:100200001C9B93951B9983951C9983950DD0A9F7F9
:10021000089590E080E07FE07A951D9B93951D996D
:10022000839502D0C9F70895A3E0B3E1BA95F1F739
:10023000AA95E1F7089560E050E026D03AD01D9BE2
:10024000FACF1D9B05C0559A5D985CD055987AC031
:10025000E0DF891708F0F5CF8FDFA3DFE5DF1DCFE3
:100260000091000160DF0895009101015CDF0895B5
:100270000091020158DF08950091030154DF0895B1
:100280000091040150DF0895503051F3513061F373
:10029000523071F3533081F3543091F35530F1F013
:1002A000563001F1573011F1583021F1593031F108
:1002B00008956030A9F26130B9F26230C9F263305A
:1002C000D9F26430E9F2653049F0663059F06730B0
:1002D00069F0683079F0693089F00895009105017E
:1002E00022DF0895009106011EDF089500910701A5
:1002F0001ADF08950091080116DF089500910901A1
:1003000012DF0895E8E2F0E001D0089503D03197BC
:10031000E9F70895DEE645B530E035BD35B3316027
:1003200035BBD6BD45BD35B330FFFDCF089582E066
:1003300090EAA3E9AA95F1F79A95E1F78A95D1F7A2
:10034000000008954D99FECF4D9BFECFA0E179D0DE
:10035000A03039F04D9B01C0FACFAA954D99F7CF47
:10036000FDCF6FD0A8E020E04D9B01C0FACF69D04F
:100370004D9901C0FCCF45D0AA954D9906C0220FDA
:10038000A03079F04D99F7CFFDCF2060220FA0303B
:1003900041F057D04D9B01C0FCCF53D04D99EBCFCE
:1003A000FCCF4FD0AFE04D9901C0FBCF4AD0A03079
:1003B00041F04D9B01C0FACFAA9543D01D99F6CFCD
:1003C000FCCF3FD04D9B01C0FCCF3BD04D9901C02D
:1003D000FCCF9AE080E0A0E006D0522F55DF582FE6
:1003E00053DF24D02ECF881BB9E0221FBA9509F421
:1003F0000895881F8A1B18F48A0F8894F6CF0894F2
:10040000F4CFE1E0F0E001D0089503D03197C9F7CF
:100410000895D5EF45B530E035BD35B3316035BB16
:10042000D6BD45BD35B330FF1DC0089582E59BE2C2
:10043000A0E0AA95F1F79A95E1F78A95D1F7000027
:100440000895E1E0F0E001D0089503D03197C9F7B5
:100450000895DFEF45B530E035BD35B3316035BBCC
:10046000D6BD45BD35B330FFFDCF089580E09AE09D
:0E047000BADF522F09DF582F07DFD8DFDCCEAE
:00000001FF
